:020000040000FA
:0400000044EF0CF0CD
:10154800C58AC5881200C586D1EC0AF01200C5828A
:10155800D1EC0AF01200C580D1EC0AF01200C58463
:06156800D1EC0AF01200B4
:10156F000B2F1F2FF52E442F010001A7EC0AF0A41B
:10157F00EC0AF0C9501200286E28C0C9FFD1EC0A3E
:10158F00F0120094869488280EC66E310EC86EC76E
:10159F009C12009EA6D6EF0AF0D8EF0AF0D1EF0A00
:1015AF00F09E9612000F0EC16E1E0E936EF19E816D
:1015BF0050E009816E12001F0E2A6E000E2B6EC0B6
:1015CF000E2C6EA7EC0CF01200F82FF52FE62FE97A
:1015DF002FEC2FEF2FF22FFB2FE32F366E000E285D
:1015EF006E35509AEC0BF0010E286E36509AEC0BBC
:1015FF00F01200286E9EA807EF0BF009EF0BF00218
:10160F00EF0BF09E9828C0ADFF12002A6EAFEC0AC8
:10161F00F0D00EC3EC0AF02A50C3EC0AF02950C3E5
:10162F00EC0AF0B3EC0AF0120068EC0BF0DAEC0AFB
:10163F00F092EC0DF0C9EC0AF0F7EC0BF01E0E93E4
:10164F006E000E196E120028502A02F3CF2CF0F400
:10165F00CF2DF028502B02F3502D2629502A02F3BC
:10166F00502D262CC028F02DC029F01200296EAF66
:10167F00EC0AF0A00EC3EC0AF02950C3EC0AF0AB51
:10168F00EC0AF0A10EC3EC0AF0BDEC0AF02A6EB31F
:10169F00EC0AF02A501200296EAFEC0AF0D00EC3FC
:1016AF00EC0AF02950C3EC0AF0ABEC0AF0D10EC3F0
:1016BF00EC0AF0BDEC0AF02A6EB3EC0AF02A5012D5
:1016CF0000C29AC288C296C294C280C186C194C118
:1016DF0082C180C19AC198C09EC094C082C090C080
:1016EF008AC098C096000EC46E000EC36E12008B97
:1016FF00EF0BF029C0F6FF2AC0F7FF0800F55001E5
:10170F00EC0BF0294A2A2A29C0F6FF2AC0F7FF0856
:10171F0000F5500009D8A497EF0BF099EF0BF0816B
:10172F00EF0BF01200296E28B0A0EF0BF0A3EF0B18
:10173F00F08282A4EF0BF0829229C083FF82848211
:10174F0094958E828082928284829483BEB2EF0BB4
:10175F00F0B4EF0BF0ABEF0BF08290959E120038C8
:10176F006EAFEC0AF0A00EC3EC0AF03850C3EC0ACF
:10177F00F03550C3EC0AF0B3EC0AF00B0E376EB82D
:10178F000E366E3606D8A03706362806E13728D82B
:10179F00A4D4EF0BF0D6EF0BF0C9EF0BF01200C291
:1017AF0082C2B2DDEF0BF0DFEF0BF0D8EF0BF0C31F
:1017BF00CF2AF0060E2B6ED8902A322B2EE3EF0B8A
:1017CF00F02A50C4CF2CF02D6AD8902C362D36D855
:1017DF00902C362D362C10286E2D50296E120000AD
:1017EF000E53EC0BF02B6E2B508009296E000E0D53
:1017FF00EC0BF0020E53EC0BF02B6E2B5040092923
:10180F006E020E0DEC0BF0930E296E070E0DEC0B06
:10181F00F0000E53EC0BF02B6E2B507F0B296E004C
:10182F000E0DEC0BF01200000E156E000E146E0074
:10183F000E1B6E940E2A6E2F0E2B6E810E2C6EA722
:10184F00EC0CF0780E2A6E2F0E2B6EC10E2C6EA79D
:10185F00EC0CF0330E2E6EBB0E2D6EE00EE82EFE4E
:10186F00D72D2EFCD72E2EFAD7010E196E000E286B
:10187F006E010E9AEC0BF01200D80EF66E150EF7E5
:10188F006E000EF86E00EECEF010EE12F00900F5BD
:10189F00CFEEFFE550E150FAE16F0EF66E150EF741
:1018AF006E000EF86E00EE47F010EE0BF00900F52B
:1018BF00CFEEFFE550E150FAE100EE60F06E0EEE74
:1018CF006AE806FDE100EE01F0270EEE6AE806FD7C
:1018DF00E1000EF86E000124EF0FF02A502B10D804
:1018EF00B47CEF0CF07EEF0CF0A2EF0CF0010E2C9D
:1018FF006E86EF0CF0D8902A362B362C2A2BAE8B17
:10190F00EF0CF08DEF0CF082EF0CF02A50285C2BCF
:10191F00502958D8A096EF0CF098EF0CF09CEF0CD4
:10192F00F02A50285E2B50295AD8902B322A322C6D
:10193F002E8DEF0CF028C028F029C029F0120000DE
:10194F000E286E2C509AEC0BF0C4EF0CF0010E2801
:10195F006E2AC0F6FF2BC0F7FFF86A050EF7640377
:10196F00D00800F55005D0F6CFE9FFF7CFEAFFEF2B
:10197F00509AEC0BF02A4A2B2A2AC0F6FF2BC0F7FD
:10198F00FFF86A050EF76403D00800F55005D0F68E
:10199F00CFE9FFF7CFEAFFEF500009D8A4DAEF0C39
:1019AF00F0DCEF0CF0AEEF0CF01200000E336E0017
:1019BF000E326E30503110D8B4E8EF0CF0EAEF0C65
:1019CF00F012EF0DF0010E346EF2EF0CF0D89030F4
:1019DF00363136342A31AEF7EF0CF0F9EF0CF0EE6A
:1019EF00EF0CF0D8903236333630502E5C31502F0A
:1019FF0058D8A005EF0DF007EF0DF00CEF0DF030FC
:101A0F00502E5E31502F5A3280D8903132303234CE
:101A1F002EF9EF0CF032C02EF033C02FF012002849
:101A2F006E2804D8A41EEF0DF020EF0DF044EF0D3B
:101A3F00F0A0EC0EF0186E1828D8B429EF0DF02B8B
:101A4F00EF0DF038EF0DF05150D8B431EF0DF033FA
:101A5F00EF0DF038EF0DF0000E516E185051EF0DE5
:101A6F00F01828D8A43EEF0DF040EF0DF050EF0D19
:101A7F00F0010E516E50EF0DF02850D8A44AEF0D23
:101A8F00F04CEF0DF050EF0DF0A0EC0EF051EF0D0C
:101A9F00F0FF0E1200020E53EC0BF0016E010E530D
:101AAF00EC0BF0026E000E53EC0BF0036E01AC6307
:101ABF00EF0DF065EF0DF070EF0DF001380F0B012A
:101ACF000B300F1F6E01500F0B300F206E79EF0D83
:101ADF00F001380F0B030B300F1F6E01500F0B303F
:101AEF000F206E3A0E216E02380F0B0F0B300F22A4
:101AFF006E02500F0B300F236E3A0E246E03380F09
:101B0F000B0F0B300F256E03500F0B300F266E008F
:101B1F000E276E1200000E956E9450F80B946E8285
:101B2F0090C30E2A6ECD0EE82EFED72A2EFCD700BC
:101B3F00F0000E286E330E9AEC0BF01B0E2A6E9EE1
:101B4F000EE82EFED72A2EFCD700D0000E286E33BB
:101B5F000E9AEC0BF0A60EE82EFED700D0000E2842
:101B6F006E330E9AEC0BF000D000D000F0000E2870
:101B7F006E020E9AEC0BF0A60EE82EFED700D000E8
:101B8F000E286E380E9AEC0BF0A60EE82EFED7003C
:101B9F00D0000E286E010E9AEC0BF0040E2A6E3E4A
:101BAF000EE82EFED72A2EFCD7000E286E0C0E9AAA
:101BBF00EC0BF0A60EE82EFED700D01200000E2D73
:101BCF006E29BEEFEF0DF0EDEF0DF0F5EF0DF028F4
:101BDF006C291ED8B0292A010E2D6E2BBEFCEF0DDD
:101BEF00F0FAEF0DF000EF0EF02A6C2B1ED8B02B91
:101BFF002A2A502B10D8B407EF0EF009EF0EF02D54
:101C0F00EF0EF0010E2C6E11EF0EF0D8902A362B3E
:101C1F00362C2A2BAE16EF0EF018EF0EF00DEF0E3E
:101C2F00F02A50285C2B502958D8A021EF0EF02312
:101C3F00EF0EF027EF0EF02A50285E2B50295AD8BE
:101C4F00902B322A322C2E18EF0EF02D50D8B433A1
:101C5F00EF0EF035EF0EF039EF0EF0286C291ED88D
:101C6F00B0292A28C028F029C029F01200000E2D13
:101C7F006E2BBE47EF0EF045EF0EF04DEF0EF02A34
:101C8F006C2B1ED8B02B2A010E2D6E29BE54EF0ED1
:101C9F00F052EF0EF05AEF0EF0286C291ED8B02933
:101CAF002A010E2D1A000E2F6E000E2E6E2A502BAB
:101CBF0010D8B465EF0EF067EF0EF08FEF0EF00156
:101CCF000E2C6E6FEF0EF0D8902A362B362C2A2B57
:101CDF00AE74EF0EF076EF0EF06BEF0EF0D8902E95
:101CEF00362F362A50285C2B502958D8A082EF0E59
:101CFF00F084EF0EF089EF0EF02A50285E2B50295A
:101D0F005A2E80D8902B322A322C2E76EF0EF02DB1
:101D1F0050D8B495EF0EF097EF0EF09BEF0EF02E1C
:101D2F006C2F1ED8B02F2A2EC028F02FC029F012EA
:101D3F0000819A818C818E81B2A8EF0EF0AAEF0EEE
:101D4F00F0ADEF0EF0010E23EF0FF081B4B2EF0EF6
:101D5F00F0B4EF0EF0B7EF0EF0040E23EF0FF0819B
:101D6F00B6BCEF0EF0BEEF0EF0C1EF0EF0070E2374
:101D7F00EF0FF081B8C6EF0EF0C8EF0EF0CBEF0EFD
:101D8F00F00A0E23EF0FF0818A819C818E81B2D3EE
:101D9F00EF0EF0D5EF0EF0D8EF0EF0020E23EF0F8F
:101DAF00F081B4DDEF0EF0DFEF0EF0E2EF0EF00595
:101DBF000E23EF0FF081B6E7EF0EF0E9EF0EF0EC28
:101DCF00EF0EF0080E23EF0FF081B8F1EF0EF0F3E6
:101DDF00EF0EF0F6EF0EF00B0E23EF0FF0818A816E
:101DEF008C819E819E81B2FFEF0EF001EF0FF00408
:101DFF00EF0FF0030E23EF0FF081B409EF0FF00B8D
:101E0F00EF0FF00EEF0FF0060E23EF0FF081B6136A
:101E1F00EF0FF015EF0FF018EF0FF0090E23EF0F84
:101E2F00F081B81DEF0FF01FEF0FF022EF0FF00C46
:101E3F000E23EF0FF0FF0E12001CEC0BF052EC0D07
:101E4F00F0010E17EC0DF01A6E96EF0FF09EEC13DB
:101E5F00F00B0E1A18D8A437EF0FF039EF0FF0264A
:101E6F00EF0FF0010E196E000E286E010E9AEC0B9B
:101E7F00F026EF0FF0A0EC12F00C0E1A18D8A44BAE
:101E8F00EF0FF04DEF0FF026EF0FF0000E196E0071
:101E9F000E286E010E9AEC0BF026EF0FF064EC108B
:101EAF00F00C0E1A18D8A45FEF0FF061EF0FF026A9
:101EBF00EF0FF0000E196E000E286E010E9AEC0B4C
:101ECF00F026EF0FF00CEC11F00C0E1A18D8A473CB
:101EDF00EF0FF075EF0FF026EF0FF0000E286E01E9
:101EEF000E9AEC0BF0000E196E26EF0FF01BEC0C98
:101EFF00F00C0E1A18D8A487EF0FF089EF0FF02609
:101F0F00EF0FF0000E196E000E286E010E9AEC0BFB
:101F1F00F026EF0FF0A8EC14F026EF0FF019504554
:101F2F006E466A4650000AD8B4A0EF0FF026EF0FA6
:101F3F00F04550000AD8B42EEF0FF0010AD8B44282
:101F4F00EF0FF0030AD8B456EF0FF0010AD8B4928E
:101F5F00EF0FF0070AD8B46AEF0FF0010AD8B47E7A
:101F6F00EF0FF026EF0FF000EF00F0000E426E00C3
:101F7F000E416E000E446E000E436E44BED3EF0F43
:101F8F00F0445007E1080E435CD8B0D1EF0FF0D307
:101F9F00EF0FF0F6EF0FF0020E43184410D8B4DB3A
:101FAF00EF0FF0DDEF0FF051EF10F0050E43184477
:101FBF0010D8A4E5EF0FF0E7EF0FF0E9EF0FF051B6
:101FCF00EF10F043503924D96E44503A20DA6EDFC7
:101FDF0050356E1B50B7EC0BF050EF10F044BE04B1
:101FEF00EF10F0445007E10A0E435CD8B002EF1037
:101FFF00F004EF10F018EF10F041503B243F6E4209
:10200F00503C20406E3FC0F6FF40C0F7FF0800F580
:10201F00CF35F01B50B7EC0BF0414A422A50EF106E
:10202F00F00A0E43184410D8A420EF10F022EF103E
:10203F00F034EF10F03DC02EF03EC02FF0000E3107
:10204F006E0A0E306EDDEC0CF02E50300F356E1B1D
:10205F0050B7EC0BF050EF10F00B0E43184410D8A4
:10206F00A43CEF10F03EEF10F050EF10F03DC02801
:10207F00F03EC029F0000E2B6E0A0E2A6E75EC0C86
:10208F00F02850300F356E1B50B7EC0BF050EF109F
:10209F00F01B2A434A442A44BE5FEF10F044500914
:1020AF00E10C0E435CD8A05FEF10F061EF10F0C5AC
:1020BF00EF0FF0144A152A12001750D8A46AEF1028
:1020CF00F06CEF10F070EF10F0D3EC11F0010E1771
:1020DF006E14501510D8A477EF10F079EF10F0A709
:1020EF00EF10F0000E286E010E9AEC0BF0C50E2AC1
:1020FF006E2F0E2B6E800E2C6EA7EC0CF0BA0E2AE4
:10210F006E2F0E2B6EC00E2C6EA7EC0CF01A0E3627
:10211F006E5E0E356E6E0EE82EFED7352EFCD73660
:10212F002EFAD700D0000E286E010E9AEC0BF0009D
:10213F000E176E000E166E010E196E0BEF11F032A8
:10214F000E2A6E2F0E2B6E800E2C6EA7EC0CF01637
:10215F00500B0D600EF324D96E000EF420DA6E16BC
:10216F0050300FDF6E16500B0D600EF3242A6E00E9
:10217F000EF4202B6EC00E2C6EA7EC0CF01A04D8A8
:10218F00A4CCEF10F0CEEF10F0E5EF10F0FF0E142F
:10219F0024356EFF0E1520366E1650376E386A35A1
:1021AF0050375C36503858D8B0E0EF10F0E2EF10EF
:1021BF00F0E5EF10F0162AF7EF10F0020E1A18D80C
:1021CF00A4ECEF10F0EEEF10F0F7EF10F01650D880
:1021DF00B4F4EF10F0F6EF10F0F7EF10F016060C66
:1021EF000E1A18D8A4FEEF10F000EF11F00BEF113C
:1021FF00F0010E196E000E286E010E9AEC0BF00016
:10220F000E176E000E166E1200D3EC11F01450154F
:10221F0010D8A415EF11F017EF11F042EF11F0DF06
:10222F000E296E2E0E2A6E7FEC0BF0D70E2A6E2F14
:10223F000E2B6E800E2C6EA7EC0CF0AE0E2A6E2FAE
:10224F000E2B6EC50E2C6EA7EC0CF01A0E366E5EB2
:10225F000E356E6E0EE82EFED7352EFCD7362EFAC3
:10226F00D700D0000E286E010E9AEC0BF0010E195C
:10227F006ED2EF11F0670E296E2F0E2A6E7FEC0BC8
:10228F00F0DF0E296E2F0E2A6E7FEC0BF0000E384A
:10229F006E000E376E000E3A6E000E396E9CEF1107
:1022AF00F0000E3C6E000E3B6E3B503C10D8A4630A
:1022BF00EF11F065EF11F06BEF11F03750300F01A8
:1022CF00EC0BF0374A382A39C028F03AC029F00011
:1022DF000E2B6E0B0E2A6E2BEC0BF0600E28243596
:1022EF006E000E2920366E3B503524D96E3C503689
:1022FF0020DA6EDF5001EC0BF03B4A3C2A3CBE92D9
:10230F00EF11F03C5009E1100E3B5CD8A092EF1199
:10231F00F094EF11F05CEF11F0E00E296E2F0E2A02
:10232F006E7FEC0BF0394A3A2A1450395C15503A4B
:10233F0058D8A0A5EF11F0A7EF11F058EF11F01436
:10234F00501510D8B4AEEF11F0B0EF11F0D2EF116D
:10235F00F0860E2A6E2F0E2B6E800E2C6EA7EC0CB5
:10236F00F0A10E2A6E2F0E2B6EC20E2C6EA7EC0C48
:10237F00F0330E366EBB0E356EE00EE82EFED735FF
:10238F002EFCD7362EFAD7010E196E000E286E01CD
:10239F000E9AEC0BF01200000E306E000E326E0033
:1023AF000E316E94EF12F031C028F032C029F000D8
:1023BF000E2B6E0B0E2A6E2BEC0BF0600E2824D911
:1023CF006E000E2920DA6E200EDF6E000E346E01C5
:1023DF000E336E33043410D8B4F8EF11F0FAEF1156
:1023EF00F00EEF12F00A0E33183410D8B402EF12B9
:1023FF00F004EF12F00EEF12F00D0E33183410D868
:10240F00A40CEF12F00EEF12F028EF12F031C028EB
:10241F00F032C029F0000E2B6E0B0E2A6E2BEC0B38
:10242F00F0600E28242E6E000E29202F6E33502EB2
:10243F0024D96E34502F20DA6E200EDF6E71EF121A
:10244F00F0040E33183410D8B430EF12F032EF120C
:10245F00F03CEF12F0070E33183410D8A43AEF12F5
:10246F00F03CEF12F056EF12F031C028F032C029D5
:10247F00F0000E2B6E0B0E2A6E2BEC0BF0600E285D
:10248F00242E6E000E29202F6E33502E24D96E3439
:10249F00502F20DA6E3A0EDF6E71EF12F031C02836
:1024AF00F032C029F0000E2B6E0B0E2A6E2BEC0BA8
:1024BF00F0600E28242E6E000E29202F6E33502E22
:1024CF0024D96E34502F20DA6E30503EEC0BF0DFF3
:1024DF006E302A334A342A34BE7FEF12F03450095B
:1024EF00E1100E335CD8A07FEF12F081EF12F0F104
:1024FF00EF11F031C028F032C029F0000E2B6E0B17
:10250F000E2A6E2BEC0BF0700E2824D96E000E29BC
:10251F0020DA6EDF6A314A322A1450315C1550329C
:10252F0058D8A09DEF12F09FEF12F0DBEF11F012D1
:10253F0000020E1A18D8A4A7EF12F0A9EF12F0D0CC
:10254F00EF12F007BEB7EF12F0075007E1030E06C8
:10255F005CD8B0B5EF12F0B7EF12F0D0EF12F00673
:10256F004A072A50BEC7EF12F0505007E1020E4F34
:10257F005CD8B0C5EF12F0C7EF12F0FEEF12F04FBC
:10258F004A502A000E286E010E9AEC0BF0FEEF1245
:10259F00F01A04D8A4D6EF12F0D8EF12F0FEEF1213
:1025AF00F007BEE3EF12F0075008E10604D8A0E3EE
:1025BF00EF12F0E5EF12F0FEEF12F00606D8A007CB
:1025CF000650BEF4EF12F0505009E1020E4F5CD8E6
:1025DF00A0F4EF12F0F6EF12F0FEEF12F04F06D864
:1025EF00A05006000E286E010E9AEC0BF04F04500F
:1025FF0010D8A405EF13F007EF13F035EF13F080A9
:10260F000E356E2A0EF5EC0AF0C00E356E200EF563
:10261F00EC0AF0D8900634D96E0734DA6E470ED92B
:10262F0026000EDA22DECF2AF0DDCF2BF0830E2C20
:10263F006EA7EC0CF0D8900634D96E0734DA6E49D9
:10264F000ED926000EDA22DECF2AF0DDCF2BF0C313
:10265F000E2C6EA7EC0CF061EF13F0C00E356E2A46
:10266F000EF5EC0AF0800E356E200EF5EC0AF0D860
:10267F00900634D96E0734DA6E450ED926000EDA7D
:10268F0022DECF2AF0DDCF2BF0830E2C6EA7EC0CC1
:10269F00F0D8900634D96E0734DA6E470ED926007B
:1026AF000EDA22DECF2AF0DDCF2BF0C30E2C6EA771
:1026BF00EC0CF00B0E1A18D8A468EF13F06AEF1396
:1026CF00F09DEF13F0000E286E010E9AEC0BF00642
:1026DF00500710D8A476EF13F078EF13F07AEF13BA
:1026EF00F0020E196E06040710D8A481EF13F083C1
:1026FF00EF13F085EF13F0050E196E020E06180793
:10270F0010D8A48DEF13F08FEF13F091EF13F004A7
:10271F000E196E030E06180710D8A499EF13F09B2D
:10272F00EF13F09DEF13F0030E196E1200E3EC0A96
:10273F00F0D7EC0BF028C02EF029C02FF0000E318F
:10274F006E0A0E306EDDEC0CF02EC00AF02FC00BAF
:10275F00F00B5007E1640E0A5CD8B0B9EF13F0BB71
:10276F00EF13F0DBEF13F0CE0E356E0AC02EF00B29
:10277F00C02FF0000E316E0A0E306EDDEC0CF02E15
:10278F0050300FF5EC0AF0CF0E356E0AC028F00B63
:10279F00C029F0000E2B6E0A0E2A6E75EC0CF02875
:1027AF0050300FF5EC0AF01A04D8A4E1EF13F0E360
:1027BF00EF13F02CEF14F0080E08180910D8A4EB43
:1027CF00EF13F0EDEF13F0F3EF13F0000E096E01BE
:1027DF000E086E8EEF14F0095007E1070E085CD853
:1027EF00B0FCEF13F0FEEF13F019EF14F0084A09E5
:1027FF002A1F0E396E000E3A6ED8900834D96E0922
:10280F0034DA6ECE0ED926000EDA22DECF3BF0DDA3
:10281F00CF3CF00AC03DF00BC03EF0BDEC0FF08E88
:10282F00EF14F0095009E1080E085CD8A022EF144C
:10283F00F024EF14F02AEF14F0000E096E070E08C3
:10284F006E8EEF14F08EEF14F0020E1A18D8A43318
:10285F00EF14F035EF14F073EF14F0080E081809A9
:10286F0010D8A43DEF14F03FEF14F041EF14F0ED4A
:10287F00EF13F0095009E1020E085CD8A04AEF14DB
:10288F00F04CEF14F068EF14F00806D8A009061FFB
:10289F000E396E000E3A6ED8900834D96E0934DABC
:1028AF006ECE0ED926000EDA22DECF3BF0DDCF3C06
:1028BF00F00AC03DF00BC03EF0BDEC0FF08EEF14F0
:1028CF00F008500910D8A46FEF14F071EF14F02A2C
:1028DF00EF14F0EDEF13F0030E1A18D8A47AEF14DB
:1028EF00F07CEF14F08EEF14F0000E096E080E0856
:1028FF006E1F0E396E000E3A6EDEC03BF0DFC03C2D
:10290F00F00AC03DF00BC03EF0BDEC0FF0560E2AA2
:10291F006E2F0E2B6E800E2C6EA7EC0CF0D890083D
:10292F0034D96E0934DA6ECE0ED926000EDA22DED5
:10293F00CF2AF0DDCF2BF0CA0E2C6EA7EC0CF012C5
:10294F0000CE0E2A6E2F0E2B6E800E2C6EA7EC0C67
:10295F00F00C500D10D8A4B7EF14F0B9EF14F0D35A
:10296F00EF14F01F500A0DF3502024F00F1D6E22AC
:10297F00500A0DF3502324F00F1E6E25500A0DF34D
:10298F00502624F00F1C6E000E0D6E010E0C6E0003
:10299F000E136E000E126E020E1A18D8A4DAEF1470
:1029AF00F0DCEF14F0F1EF14F0124A132A13500970
:1029BF00E1030E125CD8A0E7EF14F0E9EF14F0ED8D
:1029CF00EF14F0000E136E000E126E000E056E0067
:1029DF000E046E12501310D8A4F8EF14F0FAEF147F
:1029EF00F098EF15F01A04D8A400EF15F002EF15C8
:1029FF00F00DEF15F01D2A170E1D6409EF15F00BE2
:102A0F00EF15F00DEF15F0000E1D6E044A052A6547
:102A1F000E04180510D8A417EF15F019EF15F0399B
:102A2F00EF15F0C00E356E1DC028F0296A000E2B71
:102A3F006E0A0E2A6E3EEC0EF02850300FF5EC0A9F
:102A4F00F0C10E356E1DC028F0296A000E2B6E0ADC
:102A5F000E2A6EE6EC0DF02850300FF5EC0AF05010
:102A6F00EF15F0055009E1C80E045CD8A042EF1530
:102A7F00F044EF15F050EF15F01C0E2A6E2F0E2BB1
:102A8F006EC00E2C6EA7EC0CF0000E056E000E043F
:102A9F006EC20E356E3A0EF5EC0AF0C50E356E3A73
:102AAF000EF5EC0AF0C30E356E1EC028F0296A0031
:102ABF000E2B6E0A0E2A6E3EEC0EF02850300FF5DC
:102ACF00EC0AF0C40E356E1EC028F0296A000E2BDA
:102ADF006E0A0E2A6EE6EC0DF02850300FF5EC0A58
:102AEF00F0C60E356E1CC028F0296A000E2B6E0A38
:102AFF000E2A6E3EEC0EF02850300FF5EC0AF0C7A0
:102B0F000E356E1CC028F0296A000E2B6E0A0E2A95
:102B1F006EE6EC0DF02850300FF5EC0AF0E5EF16ED
:102B2F00F012041310D8A49FEF15F0A1EF15F03F8A
:102B3F00EF16F01A04D8A4A7EF15F0A9EF15F0B40B
:102B4F00EF15F01E2A3B0E1E64B0EF15F0B2EF1515
:102B5F00F0B4EF15F0000E1E6E044A052A650E0440
:102B6F00180510D8A4BEEF15F0C0EF15F0E0EF1563
:102B7F00F0C30E356E1EC028F0296A000E2B6E0AA8
:102B8F000E2A6E3EEC0EF02850300FF5EC0AF0C412
:102B9F000E356E1EC028F0296A000E2B6E0A0E2A03
:102BAF006EE6EC0DF02850300FF5EC0AF0F7EF154C
:102BBF00F0055009E1C80E045CD8A0E9EF15F0EB61
:102BCF00EF15F0F7EF15F01C0E2A6E2F0E2B6EC3BC
:102BDF000E2C6EA7EC0CF0000E056E000E046EC2EC
:102BEF000E356E3A0EF5EC0AF0C50E356E3A0EF54F
:102BFF00EC0AF0C00E356E1DC028F0296A000E2BAE
:102C0F006E0A0E2A6E3EEC0EF02850300FF5EC0ACD
:102C1F00F0C10E356E1DC028F0296A000E2B6E0A0A
:102C2F000E2A6EE6EC0DF02850300FF5EC0AF0C6C8
:102C3F000E356E1CC028F0296A000E2B6E0A0E2A64
:102C4F006E3EEC0EF02850300FF5EC0AF0C70E3543
:102C5F006E1CC028F0296A000E2B6E0A0E2A6EE633
:102C6F00EC0DF02850300FF5EC0AF0E5EF16F002FE
:102C7F000E12181310D8A447EF16F049EF16F0E50F
:102C8F00EF16F01A04D8A44FEF16F051EF16F05CC0
:102C9F00EF16F01C2A3B0E1C6458EF16F05AEF1675
:102CAF00F05CEF16F0000E1C6E044A052A650E0448
:102CBF00180510D8A466EF16F068EF16F088EF1617
:102CCF00F0C60E356E1CC028F0296A000E2B6E0A56
:102CDF000E2A6E3EEC0EF02850300FF5EC0AF0C7BE
:102CEF000E356E1CC028F0296A000E2B6E0A0E2AB4
:102CFF006EE6EC0DF02850300FF5EC0AF09FEF1652
:102D0F00F0055009E1C80E045CD8A091EF16F093BE
:102D1F00EF16F09FEF16F01C0E2A6E2F0E2B6EC6BD
:102D2F000E2C6EA7EC0CF0000E056E000E046EC29A
:102D3F000E356E3A0EF5EC0AF0C50E356E3A0EF5FD
:102D4F00EC0AF0C00E356E1DC028F0296A000E2B5C
:102D5F006E0A0E2A6E3EEC0EF02850300FF5EC0A7C
:102D6F00F0C10E356E1DC028F0296A000E2B6E0AB9
:102D7F000E2A6EE6EC0DF02850300FF5EC0AF0C37A
:102D8F000E356E1EC028F0296A000E2B6E0A0E2A11
:102D9F006E3EEC0EF02850300FF5EC0AF0C40E35F5
:102DAF006E1EC028F0296A000E2B6E0A0E2A6EE6E0
:102DBF00EC0DF02850300FF5EC0AF00B0E1A18D866
:102DCF00A4ECEF16F0EEEF16F0F9EF16F0000E117F
:102DDF006E010E106E000E286E010E9AEC0BF001B4
:102DEF000E196E10041110D8A400EF17F002EF1790
:102DFF00F06EEF17F01DC028F0296A000E2B6E0A37
:102E0F000E2A6EE6EC0DF028C037F029C038F01D01
:102E1F00C028F0296A000E2B6E0A0E2A6E3EEC0EA9
:102E2F00F02838F00B3710396E1EC028F0296A00D1
:102E3F000E2B6E0A0E2A6EE6EC0DF028C037F02925
:102E4F00C038F01EC028F0296A000E2B6E0A0E2A19
:102E5F006E3EEC0EF02838F00B37103A6E1CC0287F
:102E6F00F0296A000E2B6E0A0E2A6EE6EC0DF02882
:102E7F00C037F029C038F01CC028F0296A000E2B8B
:102E8F006E0A0E2A6E3EEC0EF02838F00B37103B10
:102E9F006E39C029F0020E0DEC0BF03AC029F0018B
:102EAF000E0DEC0BF03BC029F0000E0DEC0BF000FB
:102EBF000E196E000E286E010E9AEC0BF0000E111B
:102ECF006E000E106E000E0D6E000E0C6E120000D6
:102EDF004E4F204C4F475320544F20444F574E4C8A
:102EEF004F41440A0D00444F574E4C4F4144204C24
:102EFF004F472020202020202020200056494557D2
:102F0F00204C4F4720202020202020202020200050
:102F1F00434C454152204C4F472020202020202059
:102F2F0020200023202054494D45202020204752A7
:102F3F0020205350005345542054494D4520202004
:102F4F0020202020202000202054494D45202047BC
:102F5F0045415220205344002320202054494D4501
:102F6F002020204752205350006576656E745F63B2
:102F7F006F756E743D3000444F574E4C4F4144496E
:102F8F004E472E2E004C6F677320436C6561726540
:102F9F0064005448524F55474820554152540054ED
:102FAF004F20444F574E4C4F414400544F204449FB
:102FBF0053504C4159004E4F204C4F47532000481F
:102FCF00483A4D4D3A5353004E4F204C4F47530004
:102FDF000A0A0D00432000473100473200473300F3
:102FEF00473400473500474E004F4E004752000010
:020000040020DA
:08000000FFFFFFFFFFFFFFFF00
:020000040030CA
:0E000000FF071F1FFF8285FF0FC00FE00F409C
:00000001FF
